:100000000C949D040C94C5040C94C5040C94C50474
:100010000C94C5040C94C5040C94C5040C94C5043C
:100020000C94C5040C94C5040C94C5040C94C5042C
:100030000C94C5040C94C5040C94C5040C94C5041C
:100040000C948D0A0C94C5040C94C5040C94C5043E
:100050000C94C5040C94C5040C94C5040C94C504FC
:100060000C94D70A0C94C50405A84CCDB2D44EB953
:100070003836A9020C50B9918688083CA6AAAA2A4B
:10008000BE000000803F1010FF0100010103F3FEDD
:100090007E331F0D1B3F3F7C7000C0C0C0E0E0F806
:1000A000FF9FFC70A0E0F0F070301418000180E0B9
:1000B000F0F8FCFEFEFFFFFFFFFFFF7E3E1C0C0082
:1000C00000001F7FFFFFFFFFFFFFFFFFFFF9F0E0D2
:1000D000C08000000000000000010307070F0F0FA1
:1000E0000F0F0F0707030300000080E0F0F8FCFE8D
:1000F000FEFFFFFFFFFFFFFEFE7C7C3820001F7F1E
:10010000FFFFFFFFFFFFFFFFFFF9F9F0F0E0E0C0A6
:100110004000000000010307070F0F0F0F0F0F072C
:1001200007030301000080E0F0F8FCFEFEFFFFFF84
:10013000FFFFFFFEFEFCF8F0E0801F7FFFFFFFFFE8
:10014000FFFFFFFFFFFFFFFFFFFFFBF97919000033
:1001500000010307070F0F0F0F0F0F070703010021
:100160000000031800010000000000000508000165
:100170000E1F1F1F0E8040FF01FFFFFFFFFFFFFF4D
:10018000FFFFFFFFFFFFFFFFFFFFFFFFFFFFFF7FFF
:100190003F3F1F1F1F1F1F1F1F3F3F7F7FFFFFFF8F
:1001A000FFFFFFFFFFFFFFFFFFFFFFFFFFFFFFFF5F
:1001B000FFFFFFFFFFFFFFFFFFFFFFFFFFFFFFFF4F
:1001C000FFFFFFFFFFFFFFFFFFFFFFFFFF7F1FCFCF
:1001D000CFEFCF9F3F7FFFFFFFFFFFFFFFFFFFFF3F
:1001E0007F7F3F9F9FDFCFCFCF1F3FFFFFFFFFFFEF
:1001F000FFFFFFFFFFFFFFFFFFFFFFFFFFFFFFFF0F
:10020000FFFFFFFFFFFFFFFFFFFFFF0F03010000E6
:1002100000000000000000000000000000000103DA
:100220000FFFFFFFFFFFFFFFFFFFFFFFFFFFFFFFCE
:10023000FFFFFFFFFFFFFFFFFFFFFFFFFFFFFFFFCE
:10024000FFFFFFFFFFFFFFFFFFFFFFFF0700FEFFB6
:10025000FFFFFFFFFFFCE1073FFFFF7F1F473398D2
:10026000CCE6F3F9FEFFFF3F07C0F8FFFFFFFFFFFB
:10027000FFFFFFFFFFFFFFFFFFFFFFFFFFFFFFFF8E
:10028000FFFFFFFFFFFFFFFFFFFFFFFCF0C080004D
:10029000000000000000000000000000000000005E
:1002A000607F7F7FFFFFFFFFFFFFFFFFFFFFFFFF7D
:1002B000FFFFFFFFFFFFFFFFFFFFFFFFFFFFFFFF4E
:1002C000FFFF3F0F07030101000000C0F0FCFFFF2C
:1002D000FFFFFFFFFFF3F7E60033F9F0040ECFEF67
:1002E000E7E7FFFFFFFFE10003030307070F1F7F9F
:1002F000FFFFFFFFFFFFFFFFFFFF7F3F1F0F0F0706
:100300000707070707070F0F1F3F3F7FFFFFFFFF8D
:100310003F1E0604000000000000000000F0FCFE8C
:10032000FEFEFEFEFEFCF9F1C387CF9F3F7FFFFF7D
:10033000FFFFFFFFFFFFFFFFFFFFFFFFFFFFFFFFCD
:10034000FFE30000000000000000003F7F7F3F3F10
:100350001FDFCFEFE7B7331130C6C7E3103217679F
:10036000AFCF1F3F7F7F7F00000000000000000034
:10037000C3FFFFFFFFFFFFFFFFFF000000000000C3
:100380000000000000000000000000000103030066
:10039000000000000000000000000000003FFFFF20
:1003A000FFFFFFFFFF0301C1F1073F0F870C010FA4
:1003B0007F1F0F070707070FFFFFFFFFFFFFFFFF6D
:1003C000FFFFFFFEFCF8F8F8F0300800000000FC2A
:1003D000FFFFFFFFFFC1003E3C038F013C3E008357
:1003E000FFFFFFF80000000070F0F0F0F8F8FCFFED
:1003F000FFFFFFFFFFFFFFFFFFFFF8E0C0800000EF
:1004000000000000000000000000000000808000EC
:1004100000E0F8F8FCFCFC7E7C3C3C3C7878F1E7A2
:10042000FFFFFFFFFFFFF8F3E7F0F8F0F3F8F8FC49
:10043000C08000000000C0E0FFFFFFFFFFFFFFFFE4
:10044000FFFFFFFFFFFFFFFFFF800080C0E0E063D2
:100450006FFFFFFFFFFFFA08000001000000008BA4
:10046000FFFF3F3978F8F86000FFFFFFFFFFFFFF55
:10047000FFFFFFFFFFFFFFFFFFFFFFFFFFFFFFFE8D
:10048000FEFCFCF8F8F8F8F8FCFCFCFEFFFFFFFCB3
:10049000F0E7CF9F3F3F7F7FFFF8E3CFBF3F7FFF76
:1004A000FFFFFFFFFFFFFFFFFFFFFFFFFFFFFF7FDC
:1004B0003F9FCFE3F8FEFFFFFFFFFFFFFFFFFFFFC0
:1004C000FFFFFFFFFFFFFFFFFFFFFCF9F3E7CEDEBB
:1004D0009CB93367870F4F8F8F8E8E8E8E0787F371
:1004E000797D3E9FCFE7F3F8FEFFFFFFFFFFFFFFA1
:1004F000FFFFFFFFFFFFFFFFFFFFFFFFFFFFFFFF0C
:10050000FFFFFFFFFFFFFFFFFFFFFFFFFFFFFFFFFB
:10051000FFFFFFFFFFFFFEFEFEFEFCFCFCFDF8FA06
:10052000F8F8F9F9FDF9F9F9F9F9FDFDFCFCFEFF20
:10053000FFFFFFFFFFFFFFFFFFFFFFFFFFFFFFFFCB
:10054000FFFFFFFFFFFFFFFFFFFFFFFFFFFFFFFFBB
:10055000FFFFFFFEFCF9F8F0F1F1F1F1F8F8FCFE15
:10056000FEFFFFFFFFFFFFFFFFFFFFFFFFFFFFFF9C
:10057000FFFFFFFFFFFFFFFFFF050820B1000000A6
:10058000000000002F00000007000700147F147F08
:1005900014242A7F2A1223130864623649552250F4
:1005A0000005030000001C2241000041221C001431
:1005B000083E081408083E08080000A0600008086B
:1005C000080808006060000020100804023E51493D
:1005D000453E00427F400042615149462141454B22
:1005E000311814127F1027454545393C4A49493096
:1005F00001710905033649494936064949291E0052
:10060000363600000056360000081422410014144B
:1006100014141400412214080201510906324959E8
:10062000513E7C1211127C7F494949363E4141417D
:10063000227F4141221C7F494949417F0909090123
:100640003E4149497A7F0808087F00417F410020E8
:1006500040413F017F081422417F404040407F02DB
:100660000C027F7F0408107F3E4141413E7F090913
:1006700009063E4151215E7F0919294646494949EB
:100680003101017F01013F4040403F1F2040201FBA
:100690003F4038403F63140814630708700807613F
:1006A00051494543007F4141000106083040004167
:1006B000417F000402010204404040404000030525
:1006C000000020545454787F48444438384444440B
:1006D00020384444487F3854545418087E09010295
:1006E00018A4A4A47C7F0804047800447D40004042
:1006F00080847D007F1028440000417F40007C04FE
:100700001804787C080404783844444438FC2424D1
:10071000241818242418FC7C080404084854545451
:1007200020043F4440203C4040207C1C2040201CB2
:100730003C4030403C44281028441CA0A0A07C44ED
:1007400064544C4400107C82000000FF00000082D2
:100750007C100008040810087C1211127C7F4949A3
:1007600049317F4545453A7F01010103603F213F03
:10077000607F49494941730C7F0C732141494D33D6
:100780007F1008047F7E2011087E7F0814224140DC
:100790003F01017F7F0608067F7F0808087F3E41F2
:1007A00041413E7F0101017F7F090909063E414128
:1007B000412203017F010361261806011C227F22CA
:1007C0001C63140814633F20203F60070808087F5B
:1007D0007F407F407F3F203F207F017F4848307F20
:1007E0004878007F7F484830004149492A1C7F10E3
:1007F0003E413E661909097F20545478403E4945E0
:1008000045387E4A4A34007C04040C00384545498A
:100810003E38545454184C307C304C24424A3400F6
:100820007C20107C007C21117C007C10284400403E
:100830003C04047C7C0810087C7C10107C0038444C
:100840004444387C04047C00FC18242418384444B4
:10085000442804047C04044C9090907C18247E244A
:100860001844281028443C20203C601C10107C00B8
:100870007C407C407C3C203C207C047C5070007C94
:100880005070007C7C50700000424252523C7C1000
:10089000384438402C127E007E4B4A4B4238555427
:1008A00055187C0405040000780A09003E494941B6
:1008B00022385454442800417F410000447D4000C8
:1008C00000457C450000457C410023443904032455
:1008D000493209047E020202017C04040200004A3B
:1008E000552900000609090644445F44447C101061
:1008F0003C4000000000250028002B0004040404F4
:1009000004040404020202020202030303030303B9
:100910000102040810204080010204081020010296
:100920000408102000000008000201000003040772
:100930000000000000000000050C11241FBECFEFD6
:10094000D8E0DEBFCDBF12E0A0E0B1E0E0E2F4E22B
:1009500002C005900D92A234B107D9F723E0A2E4BA
:10096000B2E001C01D92AB30B207E1F714E0CDE96F
:10097000D4E004C02197FE010E940312CC39D107B4
:10098000C9F70E941D0C0C940E120C9400002091CB
:10099000E9029091E802213208F04AC08091C50234
:1009A0008111FCCF32E03093C50231E03093C402B4
:1009B0003FEF3093C3021092C2022093C102A8EC11
:1009C000B2E041EA52E0FA013E2F341B321718F42C
:1009D0003D913193F9CF1092A0022091A002990F7E
:1009E000922B9093A00290919F02913061F410920B
:1009F0009F029091A0029093BB009091BC0093FD48
:100A0000F8CF95EC01C095EE9093BC009091C50293
:100A10009230E1F39091C3029F3F79F08091C3023D
:100A2000803241F08091C302803331F084E005C010
:100A300081E003C082E001C083E01092C7021092FF
:100A4000E9021092C602089590E0FC01EC5DF64FB9
:100A50002491FC01E05FF64F3491FC01E450F74F24
:100A6000E491EE23B1F1222339F1233091F038F4EF
:100A70002130A9F0223001F584B58F7D12C02730D6
:100A800091F02830A1F02430B9F4809180008F7D5E
:100A900003C0809180008F77809380000DC084B563
:100AA0008F7784BD09C08091B0008F7703C080919B
:100AB000B0008F7D8093B000F0E0EE0FFF1FEE508E
:100AC000F74FA591B4918FB7F894EC913E2B3C93DE
:100AD0008FBF0895CF92DF92EF92FF920F931F93F3
:100AE000CF93DF936C017A018B01C0E0D0E0CE158B
:100AF000DF0589F0D8016D918D01D601ED91FC9152
:100B00000190F081E02DC6010995892B11F47E0139
:100B100002C02196ECCFC701DF91CF911F910F91B9
:100B2000FF90EF90DF90CF900895803D41F018F452
:100B3000823C29F008C0813D11F0823D21F4809370
:100B400089028FEF089590918902911106C090EE6D
:100B5000980F9F3508F046C00895903DA9F4109273
:100B6000890290E7980F903310F4815108958138ED
:100B7000D9F18338D9F18438D9F18638D9F1873859
:100B8000D9F18E3879F53AC0913DA9F410928902D5
:100B900090E8980F903110F4815D0895813981F1CA
:100BA000833981F1843981F1863981F1873981F185
:100BB0008E39C1F42FC0923D39F4109289028039E8
:100BC00059F1813979F42AC0923C61F4109289027A
:100BD000873A31F1803B31F1813B31F1853B11F4B2
:100BE00080ED08958AE208958FEB089581EC0895D1
:100BF00083EC089585EC089587EC089589EC0895B9
:100C000080EC089582EC089584EC089586EC0895B4
:100C100088EC08958AEC08958BEC08958CEC089587
:100C20008DEC08958EEC08958FEC089585ED8093FA
:100C3000BC008091BC0084FDFCCF1092C5020895D9
:100C400040916402262F30E0240F311D21323105FE
:100C5000DCF42091C5022430C9F4FC0180E090E06E
:100C6000861758F4309164022191DC01AE5BBD4FD0
:100C7000A30FB11D2C930196F3CF80916402680FEE
:100C80006093640280E0089581E0089582E0089511
:100C9000089581E090E03091900220918F02321708
:100CA00010F480E090E091958195910908958091EC
:100CB000900290918F02891730F48F5F8093900299
:100CC00080E090E008958FEF9FEF089580918F026C
:100CD00090E020919002821B91090895CF92DF92BB
:100CE000EF92FF920F931F93CF93DF937C01262FF8
:100CF000972F8A018091C602882391F0C62FD72FA3
:100D00006E01C40ED51ECC15DD0571F06991D701B9
:100D1000ED91FC910190F081E02DC7010995F3CF91
:100D2000642F822F0E942006C801DF91CF911F916E
:100D30000F91FF90EF90DF90CF900895CF93DF93C6
:100D40001F92CDB7DEB769832091C6022223D1F06E
:100D50002091E902203240F021E030E0FC013383B1
:100D6000228380E090E015C08091C702E82FF0E078
:100D7000E853FD4F998190838F5F8093C7028093E2
:100D8000E90205C061E0CE0101960E94200681E0E3
:100D900090E00F90DF91CF910895CF93C82F81E01D
:100DA0008093C6028CE38093E8021092C7021092EF
:100DB000E90260E88FEF92E00E949E066C2F8FEFB1
:100DC00092E00E949E06CF910C94C704CF93DF93CC
:100DD00087FD1BC09091FD02891304C09091FE0213
:100DE000691799F0D62FC82F8F700E94CD068C2FCF
:100DF00082958F70805F0E94CD0680EB8D0F0E94E0
:100E0000CD06C093FD02D093FE02DF91CF910895ED
:100E1000CF93C82F81E08093C6028CE38093E802D1
:100E20001092C7021092E90260E48FEF92E00E94F4
:100E30009E066C2F8FEF92E00E949E06CF910C943D
:100E4000C704CF93DF93C0E06C2F80E00E94E606DA
:100E5000D0E080E00E940807DF5FD038D1F7CF5F95
:100E6000C83091F760E080E0DF91CF910C94E60606
:100E70004F925F926F927F928F929F92AF92BF92AA
:100E8000CF92DF92EF92FF920F931F93CF93DF9356
:100E90001F92CDB7DEB7182F862F22E02093EB02EA
:100EA000642F99830E94E6066090FD02412E99818D
:100EB000592E7201B5E07B2ECC24C394D12CF701BE
:100EC00081917F01882309F455C00E949505182F50
:100ED0008F3FA9F38DE7861540F080E00E94080758
:100EE00080E00E94080763946394812F90E08097CC
:100EF000789E5001799EB00C112400E010E0E4E0EF
:100F0000AE0EB11CFDE7F61578F1F501E00FF11F0B
:100F1000E758FA4FE49180E090E0812C912C0E2E5E
:100F2000000CFF0B9601082E02C0220F331F0A94FB
:100F3000E2F72E233F23082E02C0220F331F0A940C
:100F4000E2F7A901440F551F242B352B822A932A3F
:100F500001968830910531F7882D0E940807882D69
:100F60000E940807639463940F5F1F4F05301105BB
:100F700049F6A5CF6091FE026F5F8091FD020E944D
:100F8000E60675E0972EEE24E394F12CF2018191B0
:100F90002F01882309F45EC00E949505182F8F3F0A
:100FA000A9F38091FD028E3758F480E00E94080773
:100FB00080E00E9408078091FD028E5F8093FD0211
:100FC000812F90E08097989E6001999ED00C11240B
:100FD00000E010E0F4E0CF0ED11C8091FD028E37CE
:100FE00098F5F601E00FF11FE758FA4FE49120E081
:100FF00030E0A12CB12C0E2E000CFF0BC701022EED
:1010000002C0880F991F0A94E2F78E239F23022EB5
:1010100002C0880F991F0A94E2F7AC01440F551FD4
:10102000842B952BA82AB92A2F5F3F4F28303105F2
:1010300029F78B2D0E9408078B2D0E9408078091AD
:10104000FD028E5F8093FD020F5F1F4F053011057B
:1010500021F69CCF6091FE0261508091FD020F90BD
:10106000DF91CF911F910F91FF90EF90DF90CF9084
:10107000BF90AF909F908F907F906F905F904F90B8
:101080000C94E606AF92BF92CF92DF92FF920F933D
:101090001F93CF93DF931F92CDB7DEB7F82E862F25
:1010A00021E02093EB02642F99830E94E6060F2D26
:1010B0009981192F85E0F82EF80181918F018823FD
:1010C00059F10E949505D82E8FEFD816A9F380E02C
:1010D0000E9408078D2D90E08097F89E6001F99E90
:1010E000D00C1124A12CB12CE4E0CE0ED11CF601C1
:1010F000EA0DFB1DE758FA4F84910E940807FFEFA5
:10110000AF1ABF0A85E0A816B10489F78091FD02E5
:101110008A5F8093FD02D0CF0F90DF91CF911F9116
:101120000F91FF90DF90CF90BF90AF9008952091E6
:10113000EB024FEF6FEF213011F40C9442080C9446
:1011400038074F925F926F927F92AF92BF92CF9289
:10115000DF92EF92FF920F931F93CF93DF93CDB760
:10116000DEB72A970FB6F894DEBF0FBECDBF6B0176
:101170007C01842F1092FC02622F0E94E6061982E5
:101180001A821B821C82FE01359686E0DF011D92C9
:101190008A95E9F7F7FE1AC0A091FC02E1E0EA0F98
:1011A000E093FC02B0E0A651BD4F8DE212968C9305
:1011B000F0E0E651FD4F1282F094E094D094C09498
:1011C000C11CD11CE11CF11C11E006C0C114D104EA
:1011D000E104F10441F010E080E02AE0422E512CBD
:1011E000612C712C16C0A091FC02E1E0EA0FE093A3
:1011F000FC02B0E0A651BD4F80E312968C93F0E064
:10120000E651FD4F12828CEE92E00E94970881E039
:101210003AC001E0080FAA24A394B12CAC0EBD1E65
:10122000A80EB11CC701B601A30192010E94AE1124
:10123000F501608369017A01802FC114D104E104B2
:10124000F10439F7100F9091FC02E92F002399F077
:1012500031E03E0FF0E0E651FD4FDE01A00FB11D81
:101260002C91205D2283E32FF0E0E651FD4F1282A6
:101270000150E32FEBCF890F8093FC028CEE92E0BC
:101280000E949708812F2A960FB6F894DEBF0FBEF2
:10129000CDBFDF91CF911F910F91FF90EF90DF9025
:1012A000CF90BF90AF907F906F905F904F900895D8
:1012B0008F929F92AF92BF92CF92DF92EF92FF9266
:1012C0000F931F93CF93DF936B017C01C42F822F69
:1012D000602F1092FC020E94E606C701B6010E9430
:1012E000B00F4B015C010E94E80F9B01AC01C701EC
:1012F000B6010E943E0F6B017C0181149104A10490
:10130000B10461F520E030E0A9010E94AB0F87FF36
:101310003CC0E091FC02AE2FB0E0A651BD4F8DE283
:1013200012968C9382E08E0F8093FC02EF5FF0E0C8
:10133000E651FD4F90E39283E82FF0E0E651FD4F38
:101340001282F7FAF094F7F8F0948CEE92E00E9493
:1013500097081092FC0212E000E021C0B7FE15C011
:1013600020E030E0A9010E94AB0F87FF0EC02FEFF5
:101370004FEFC501B4010E94A108082F1092FC0292
:10138000F7FAF094F7F8F09409C02FEF4FEFC5018A
:10139000B4010E94A108082F1092FC0210E020E086
:1013A00030E0A901C701B6010E94981018160CF090
:1013B00051C0A091FC02E1E0EA0FE093FC02B0E032
:1013C000A651BD4F8EE212968C93F0E0E651FD4F90
:1013D00012821F5F8CEE92E00E9497088C2F90E0A3
:1013E000800F911D099714F0C8E0C01BD0E0DC17F6
:1013F00051F120E030E040E251E4C701B6010E9423
:101400009D106B017C010E94B70FBB24B394BD0EED
:10141000ED2FF0E0E651FD4F80E3860F8283EB2D48
:10142000F0E0E651FD4F128270E080E090E00E9413
:10143000E80F9B01AC01C701B6010E943E0F6B0192
:101440007C01DB2DD4CFC093FC028CEE92E00E9495
:10145000970801C0C0E08C2F810F800FDF91CF91E2
:101460001F910F91FF90EF90DF90CF90BF90AF90C2
:101470009F908F9008954F925F926F927F928F927C
:101480009F92AF92BF92CF92DF92EF92FF920F9313
:101490001F93CF93DF935C01562E442EE22EF12C46
:1014A000C12CD12CC0E0D0E010E0C017D107F4F47B
:1014B0006C2F640D852D0E94E606612C712C46016F
:1014C00084E0880E911C6E147F0461F0F401E60D37
:1014D000F71DEA0DFB1D84910E9408078FEF681A23
:1014E000780AF1CF2196CE0CDF1CDFCFDF91CF91B0
:1014F0001F910F91FF90EF90DF90CF90BF90AF9032
:101500009F908F907F906F905F904F900895089577
:1015100080E090E008950E9409121F920F920FB68A
:101520000F9211242F933F938F939F93AF93BF9369
:101530008091910290919202A0919302B0919402B5
:1015400030918E0223E0230F2D3720F40196A11D48
:10155000B11D05C026E8230F0296A11DB11D2093E1
:101560008E028093910290939202A0939302B09383
:10157000940280918A0290918B02A0918C02B0918A
:101580008D020196A11DB11D80938A0290938B025A
:10159000A0938C02B0938D02BF91AF919F918F91D8
:1015A0003F912F910F900FBE0F901F9018951F9293
:1015B0000F920FB60F9211242F933F934F935F9387
:1015C0006F937F938F939F93AF93BF93EF93FF930B
:1015D0008091B900887F803609F49CC068F5883214
:1015E00009F45BC090F4803109F454C038F48823C6
:1015F00009F4F6C0883009F44DC0F6C0883109F40A
:101600004CC0803209F45DC0EFC0803409F468C07A
:1016100048F4803309F455C0883309F0E5C080935D
:10162000C302D8C0803509F44FC0883509F45DC0C5
:10163000883409F0D9C0D6C0883909F4C7C0A8F4E5
:10164000883709F467C038F4883609F463C08037F6
:1016500009F460C0C9C0883809F4B8C0803909F4F9
:101660005FC0803809F0C0C05BC0803B09F486C011
:1016700038F4803A09F466C0883A09F47FC0B4C0EF
:10168000803C09F4A7C0883C09F4A4C0883B09F455
:101690008AC0AAC08091A00210C09091C20280911D
:1016A000C102981770F5E091C20281E08E0F80931D
:1016B000C202F0E0EF55FD4F80818093BB0085ECC6
:1016C00086C08093C3028EC0E091C20281E08E0F7B
:1016D0008093C2028091BB00F0E0EF55FD4F808304
:1016E0009091C2028091C1026EC0E091C20281E07D
:1016F0008E0F8093C2028091BB00F0E0EF55FD4F4A
:1017000080838091C40281116DC081E080939F022B
:1017100084EA61C083E08093C50210928802CFCF33
:1017200080918802803208F051C0E091880281E007
:101730008E0F809388028091BB00F0E0E859FD4F46
:101740008083BDCF85EC8093BC001092C502809150
:101750008802803230F4E0918802F0E0E859FD4FD1
:1017600010826091880270E0E0916602F091670259
:1017700088E692E009951092880236C084E0809352
:10178000C5021092650210926402E0916202F0912B
:101790006302099580916402811105C081E0809304
:1017A000640210924202E091650281E08E0F809304
:1017B0006502F0E0EE5BFD4F80818093BB0090916D
:1017C000650280916402981708F479CF85E88093C8
:1017D000BC000AC085EC8093BC001092C50204C016
:1017E0001092C3020E941606FF91EF91BF91AF9134
:1017F0009F918F917F916F915F914F913F912F9129
:101800000F900FBE0F901F901895EAEEF2E081E066
:101810008183128A138A148AEFEFF2E01382128214
:1018200088EE93E0A0E0B0E084839583A683B7833D
:1018300084E091E0918380830895CF93DF9300D07B
:1018400000D01F92CDB7DEB7789484B5826084BD96
:1018500084B5816084BD85B5826085BD85B58160B4
:1018600085BD80916E00816080936E001092810032
:1018700080918100826080938100809181008160ED
:1018800080938100809180008160809380008091AE
:10189000B10084608093B1008091B000816080933A
:1018A000B00080917A00846080937A0080917A0001
:1018B000826080937A0080917A00816080937A00C0
:1018C00080917A00806880937A001092C1002FB7CF
:1018D000F8948091910290919202A0919302B0911C
:1018E00094022FBF8093970290939802A09399023D
:1018F000B0939A021092900210928F021092C70237
:101900001092E9021092C50281E08093C402109205
:101910009F0282E10E94240583E10E9424058091B8
:10192000B9008E7F8093B9008091B9008D7F80933C
:10193000B90088E48093B80085E48093BC0080916E
:10194000B8008CE08093B80082E08093EA0280E2E5
:101950000E94CD0682E00E94CD060E94210760E031
:1019600080E00E94E6068EEA0E94CD0685ED0E9488
:10197000CD0680E80E94CD0688EA0E94CD068FE35E
:101980000E94CD0683ED0E94CD0680E00E94CD0628
:1019900080E40E94CD068DE80E94CD0684E10E947D
:1019A000CD0680E20E94CD0680E00E94CD0681EA4D
:1019B0000E94CD0688EC0E94CD068AED0E94CD06DD
:1019C00082E10E94CD0681E80E94CD068FEC0E9444
:1019D000CD0689ED0E94CD0681EF0E94CD068BEDEC
:1019E0000E94CD0680E40E94CD0684EA0E94CD06C6
:1019F00086EA0E94CD068FEA0E94CD060E9421074A
:101A0000B6E98B2E912CA12CB12C14E0412E512C37
:101A1000612C712C8FB7F894C0909102D0909202F3
:101A2000E0909302F09094028FBFC0929B02D092FC
:101A30009C02E0929D02F0929E028091970290910A
:101A40009802A0919902B0919A0297018601081B11
:101A5000190B2A0B3B0BD901C80189389341A10509
:101A6000B105BCF0C0929702D0929802E092990220
:101A7000F0929A028091950290919602019666E00A
:101A800070E00E949A1190939602809395020E94B2
:101A90002107C701B601A50194010E94AE11CA0138
:101AA000B901A30192010E94AE11362E23E0621308
:101AB00002C0332433944091970250919802609170
:101AC000990270919A0280919502909196028230CB
:101AD000910509F472C0F4F40097F1F1019709F04F
:101AE000C5C140E060E08CE092E00E94380742E02F
:101AF00060E087E192E00E94380744E060E082E223
:101B000092E00E94380746E060E087EF91E00E9493
:101B10003807ACC18430910509F40EC10CF4C6C07D
:101B2000059709F0A3C197018601041B150B260B2D
:101B3000370BC901B80122E330E040E050E00E94D9
:101B4000AE11322F88E0D82ED20EE12CF12C4D2D83
:101B500050E05B834A83F9C040E060E082E191E0BD
:101B60000E94420841E060E088E291E00E94420861
:101B700042E060E08EE391E00E94420843E060E0D2
:101B800084E591E00E94420844E060E08AE691E04A
:101B90000E94420845E060E08BE891E00E94420824
:101BA00046E060E086EB91E00E94420847E060E09A
:101BB00081EE91E00E94420859C100E010E0B801B6
:101BC000012E000C880B990B0E94E80F2CEE31E5DA
:101BD00048EB5DE30E949D102DEC3CEC4CE45EE391
:101BE0000E943F0F0E940A1120E030E04CE052E4D6
:101BF0000E949D100E94B00F1B013DE2230E311C7C
:101C000037FC08C04BE52416310434F0AAE52A2E2F
:101C1000312C02C0212C312CF0EDEF2EF2E0FF2E02
:101C2000D12C6D2D802F0E94E606B701E3E075955B
:101C30006795EA95E1F7C7018A5591097C0162151C
:101C40007305F4F09C0153E0359527955A95E1F71B
:101C500022163306C4F0C101821B930B43E0880FA8
:101C6000991F4A95E1F7621B730B0E949A1180E05D
:101C70009FEF02C0959587956A95E2F7992705C071
:101C80008FEF90E002C080E090E00E940807D394BC
:101C900098E0D912C6CF60E080E00E94E6060F5FB0
:101CA0001F4F0038110509F08ACFE0C020E040E066
:101CB0006BE770E080E090E00E94A10822E040E045
:101CC0006FEB7EEF8FEF9FEF0E94A10802E02CE305
:101CD00046E06EEF74E684EE93E40E94580900E05B
:101CE00020E346E06EEF74E684EE93EC0E94580920
:101CF00006E020E048E06FE075E481E09CEB0E94A4
:101D0000580924E04CE16AE070E080E090E00E9435
:101D1000A1084FEF6FEF82E392E00E9442084FEF7D
:101D20006FEF84E392E00E9438072FEF4FEF68EEE9
:101D300073E080E090E098C008E020E840E060E0D8
:101D400085E791E00E943B0A91C08A819B818E15B4
:101D50009F055CF401E025E041E06AE16E0D8CE650
:101D600091E03D830E943B0A3D8198E1E90EF11C20
:101D700008E7E016F10449F765E0630F02E023E0AD
:101D800040E082E691E00E943B0A1CE3319EC001E4
:101D9000112403E024E140E06D2D86559F4F0E9401
:101DA0003B0AE6E8F0E024912983E7E8F0E0E491DB
:101DB000E695E695E695222E312C00E010E020E035
:101DC00030E04E2F50E05B834A834A815B812417C9
:101DD00035073CF566E0620F84E62C833D830E9464
:101DE000E606E12CF12C680154E0C50ED11C2C81D3
:101DF0003D819981E91680F4F601EE0DFF1DEA5749
:101E0000FF4F84912C833D830E9408078FEFE81ACF
:101E1000F80A3D812C81EDCF2F5F3F4F020D131D3E
:101E2000D4CF44E060E086E392E00E9442082FEFC6
:101E30004FEF6BE770E080E090E00E94A1080FEFA9
:101E40002FEF46E06EEF74E684EE93EC0E945809A3
:101E500046E060E08DE392E00E9438072FEF4FEFFD
:101E60006BE770E080E090E00E94A10880E090E0E5
:101E7000892B09F4CFCD0E940000CCCD5058BB2750
:101E8000AA270E94560F0C945E100E94501038F042
:101E90000E94571020F039F49F3F19F426F40C9457
:101EA0004D100EF4E095E7FB0C944710E92F0E94CB
:101EB0006F1058F3BA17620773078407950720F06D
:101EC00079F4A6F50C9491100EF4E0950B2EBA2F30
:101ED000A02D0B01B90190010C01CA01A001112430
:101EE000FF27591B99F0593F50F4503E68F11A16DC
:101EF000F040A22F232F342F4427585FF3CF46956D
:101F000037952795A795F0405395C9F77EF41F168E
:101F1000BA0B620B730B840BBAF09150A1F0FF0F58
:101F2000BB1F661F771F881FC2F70EC0BA0F621F44
:101F3000731F841F48F4879577956795B795F79534
:101F40009E3F08F0B0CF9395880F08F09927EE0FC9
:101F50009795879508950E94231008F481E00895CD
:101F60000E94B70F6894B1110C94921008950E94CA
:101F7000771088F09F5798F0B92F9927B751B0F094
:101F8000E1F0660F771F881F991F1AF0BA95C9F7FD
:101F900014C0B13091F00E949110B1E008950C94FA
:101FA0009110672F782F8827B85F39F0B93FCCF3AD
:101FB000869577956795B395D9F73EF4909580957A
:101FC000709561957F4F8F4F9F4F0895E89409C09A
:101FD00097FB3EF490958095709561957F4F8F4F5C
:101FE0009F4F9923A9F0F92F96E9BB279395F69572
:101FF000879577956795B795F111F8CFFAF4BB0FF0
:1020000011F460FF1BC06F5F7F4F8F4F9F4F16C053
:10201000882311F096E911C0772321F09EE8872FDD
:10202000762F05C0662371F096E8862F70E060E099
:102030002AF09A95660F771F881FDAF7880F969512
:10204000879597F90895990F0008550FAA0BE0E8B6
:10205000FEEF16161706E807F907C0F0121613066A
:10206000E407F50798F0621B730B840B950B39F4AA
:102070000A2661F0232B242B252B21F408950A2610
:1020800009F4A140A6958FEF811D811D089597F950
:102090009F6780E870E060E008959FEF80EC08950E
:1020A00000240A9416161706180609060895002437
:1020B0000A9412161306140605060895092E0394B1
:1020C000000C11F4882352F0BB0F40F4BF2B11F425
:1020D00060FF04C06F5F7F4F8F4F9F4F089557FD84
:1020E0009058440F551F59F05F3F71F04795880F86
:1020F00097FB991F61F09F3F79F08795089512161D
:1021000013061406551FF2CF4695F1DF08C01616C8
:1021100017061806991FF1CF869571056105089479
:102120000895E894BB2766277727CB0197F9089590
:102130000E94231008F48FEF08950E94B0100C94B1
:102140005E100E94501038F00E94571020F0952326
:1021500011F00C9447100C944D1011240C94921013
:102160000E946F1070F3959FC1F3950F50E0551FBB
:10217000629FF001729FBB27F00DB11D639FAA27DC
:10218000F00DB11DAA1F649F6627B00DA11D661F2B
:10219000829F2227B00DA11D621F739FB00DA11D4C
:1021A000621F839FA00D611D221F749F3327A00D06
:1021B000611D231F849F600D211D822F762F6A2FA2
:1021C00011249F5750409AF0F1F088234AF0EE0F07
:1021D000FF1FBB1F661F771F881F91505040A9F734
:1021E0009E3F510580F00C9447100C9492105F3F75
:1021F000E4F3983ED4F3869577956795B795F79570
:10220000E7959F5FC1F7FE2B880F911D96958795E7
:1022100097F908959F930E9414110F9007FCEE5FA9
:102220000C943D110C944D100E947710D8F3E89453
:10223000E0E0BB279F57F0F02AED3FE049EC06C0F5
:10224000EE0FBB0F661F771F881F28F0B23A620798
:102250007307840728F0B25A620B730B840BE39563
:102260009A9572F7803830F49A95BB0F661F771FE6
:10227000881FD2F790480C945311EF93E0FF07C0EA
:10228000A2EA2AED3FE049EC5FEB0E94560F0E9464
:102290005E100F90039401FC9058E8E6F0E00C9477
:1022A0005F119F3F31F0915020F4879577956795A6
:1022B000B795880F911D9695879597F908959F93E7
:1022C0008F937F936F93FF93EF939B01AC010E94D9
:1022D0009D10EF91FF910E9473112F913F914F91AB
:1022E0005F910C949D10DF93CF931F930F93FF92F8
:1022F000EF92DF927B018C01689406C0DA2EEF0129
:102300000E94B010FE01E894A59125913591459168
:102310005591A6F3EF010E94560FFE019701A80107
:10232000DA9469F7DF90EF90FF900F911F91CF91B2
:10233000DF91089597FB072E16F4009407D077FDE0
:1023400009D00E94CD1107FC05D03EF490958195EF
:102350009F4F0895709561957F4F0895052E97FBC7
:102360001EF400940E94C51157FD07D00E94E11190
:1023700007FC03D04EF40C94C51150954095309550
:1023800021953F4F4F4F5F4F0895909580957095E1
:1023900061957F4F8F4F9F4F0895AA1BBB1B51E143
:1023A00007C0AA1FBB1FA617B70710F0A61BB70BC5
:1023B000881F991F5A95A9F780959095BC01CD016A
:1023C0000895A1E21A2EAA1BBB1BFD010DC0AA1F76
:1023D000BB1FEE1FFF1FA217B307E407F50720F08E
:1023E000A21BB30BE40BF50B661F771F881F991F09
:1023F0001A9469F760957095809590959B01AC0152
:10240000BD01CF010895EE0FFF1F0590F491E02D5F
:10241000099481E090E0F8940C940E12F894FFCFA8
:10242000000000009E066E06880A480666065706EB
:1024300049063031323334353637383921222324B6
:1024400025262728292A2B002C2D2E2F3A3B3C3DD0
:102450003E3F405B5C5D5E5F607B7C7D7E00414219
:10246000434445464748494A4B4C4D4E4F505152C4
:1024700053545500565758595A61626364656667EC
:1024800068696A6B6C6D6E6F7000717273747576CB
:102490007778797AD090D091D092D093D094D0950B
:1024A000D081D096D097D098D09900D09AD09BD098
:1024B0009CD09DD09ED09FD0A0D0A1D0A2D0A3D0A0
:1024C000A4D0A5D0A6D0A7D0A8D0A9D0AAD0ABD050
:1024D000ACD0ADD0AE00D0AFD0B0D0B1D0B2D0B3D0
:1024E000D0B4D0B5D191D0B6D0B7D0B8D0B9D0BAD9
:1024F000D0BBD0BCD0BDD0BED0BFD180D181D18225
:1025000000D183D184D185D186D187D188D189D199
:102510008AD18BD18CD18DD18ED18FD087D197D0CC
:102520008ED19EC2A7C2B0C2B1C2B5003031323323
:1025300034352526272B0041424344454647484928
:102540004A00767778797AD090D091D092D095D091
:10255000810033003D00536D616C6C20004269675F
:02256000200059
:107E0000112484B714BE81FFF0D085E080938100F7
:107E100082E08093C00088E18093C10086E0809377
:107E2000C20080E18093C4008EE0C9D0259A86E02C
:107E300020E33CEF91E0309385002093840096BBD3
:107E4000B09BFECF1D9AA8958150A9F7CC24DD24C4
:107E500088248394B5E0AB2EA1E19A2EF3E0BF2EE7
:107E6000A2D0813461F49FD0082FAFD0023811F036
:107E7000013811F484E001C083E08DD089C08234E0
:107E800011F484E103C0853419F485E0A6D080C0E4
:107E9000853579F488D0E82EFF2485D0082F10E0AE
:107EA000102F00270E291F29000F111F8ED06801E7
:107EB0006FC0863521F484E090D080E0DECF843638
:107EC00009F040C070D06FD0082F6DD080E0C81688
:107ED00080E7D80618F4F601B7BEE895C0E0D1E017
:107EE00062D089930C17E1F7F0E0CF16F0E7DF06D8
:107EF00018F0F601B7BEE89568D007B600FCFDCFD4
:107F0000A601A0E0B1E02C9130E011968C91119780
:107F100090E0982F8827822B932B1296FA010C0160
:107F200087BEE89511244E5F5F4FF1E0A038BF0790
:107F300051F7F601A7BEE89507B600FCFDCF97BE46
:107F4000E89526C08437B1F42ED02DD0F82E2BD052
:107F50003CD0F601EF2C8F010F5F1F4F84911BD097
:107F6000EA94F801C1F70894C11CD11CFA94CF0C13
:107F7000D11C0EC0853739F428D08EE10CD085E9AC
:107F80000AD08FE07ACF813511F488E018D01DD067
:107F900080E101D065CF982F8091C00085FFFCCF94
:107FA0009093C60008958091C00087FFFCCF809118
:107FB000C00084FD01C0A8958091C6000895E0E648
:107FC000F0E098E1908380830895EDDF803219F02E
:107FD00088E0F5DFFFCF84E1DECF1F93182FE3DFCA
:107FE0001150E9F7F2DF1F91089580E0E8DFEE27F6
:047FF000FF270994CA
:027FFE00040479
:0400000300007E007B
:00000001FF